{
  "_format": "hh-sol-artifact-1",
  "contractName": "Voting",
  "sourceName": "contracts/Voting.sol",
  "abi": [
    {
      "inputs": [],
      "stateMutability": "nonpayable",
      "type": "constructor"
    },
    {
      "anonymous": false,
      "inputs": [
        {
          "indexed": true,
          "internalType": "uint256",
          "name": "candidateId",
          "type": "uint256"
        }
      ],
      "name": "VotedEvent",
      "type": "event"
    },
    {
      "inputs": [
        {
          "internalType": "uint256",
          "name": "",
          "type": "uint256"
        }
      ],
      "name": "candidates",
      "outputs": [
        {
          "internalType": "uint256",
          "name": "id",
          "type": "uint256"
        },
        {
          "internalType": "string",
          "name": "name",
          "type": "string"
        },
        {
          "internalType": "uint256",
          "name": "voteCount",
          "type": "uint256"
        }
      ],
      "stateMutability": "view",
      "type": "function"
    },
    {
      "inputs": [
        {
          "internalType": "uint256",
          "name": "_candidateId",
          "type": "uint256"
        }
      ],
      "name": "getCandidate",
      "outputs": [
        {
          "internalType": "uint256",
          "name": "",
          "type": "uint256"
        },
        {
          "internalType": "string",
          "name": "",
          "type": "string"
        },
        {
          "internalType": "uint256",
          "name": "",
          "type": "uint256"
        }
      ],
      "stateMutability": "view",
      "type": "function"
    },
    {
      "inputs": [],
      "name": "getCandidatesCount",
      "outputs": [
        {
          "internalType": "uint256",
          "name": "",
          "type": "uint256"
        }
      ],
      "stateMutability": "view",
      "type": "function"
    },
    {
      "inputs": [
        {
          "internalType": "address",
          "name": "_voter",
          "type": "address"
        }
      ],
      "name": "hasVoted",
      "outputs": [
        {
          "internalType": "bool",
          "name": "",
          "type": "bool"
        }
      ],
      "stateMutability": "view",
      "type": "function"
    },
    {
      "inputs": [
        {
          "internalType": "uint256",
          "name": "_candidateId",
          "type": "uint256"
        }
      ],
      "name": "vote",
      "outputs": [],
      "stateMutability": "nonpayable",
      "type": "function"
    },
    {
      "inputs": [
        {
          "internalType": "address",
          "name": "",
          "type": "address"
        }
      ],
      "name": "voters",
      "outputs": [
        {
          "internalType": "bool",
          "name": "",
          "type": "bool"
        }
      ],
      "stateMutability": "view",
      "type": "function"
    }
  ],
  "bytecode": "0x60806040523480156200001157600080fd5b50620000586040518060400160405280600581526020017f416c696365000000000000000000000000000000000000000000000000000000815250620000a460201b60201c565b6200009e6040518060400160405280600381526020017f426f620000000000000000000000000000000000000000000000000000000000815250620000a460201b60201c565b620004ff565b60026000815480929190620000b9906200015b565b9190505550604051806060016040528060025481526020018281526020016000815250600080600254815260200190815260200160002060008201518160000155602082015181600101908162000111919062000418565b506040820151816002015590505050565b7f4e487b7100000000000000000000000000000000000000000000000000000000600052601160045260246000fd5b6000819050919050565b6000620001688262000151565b91507fffffffffffffffffffffffffffffffffffffffffffffffffffffffffffffffff82036200019d576200019c62000122565b5b600182019050919050565b600081519050919050565b7f4e487b7100000000000000000000000000000000000000000000000000000000600052604160045260246000fd5b7f4e487b7100000000000000000000000000000000000000000000000000000000600052602260045260246000fd5b600060028204905060018216806200022a57607f821691505b60208210810362000240576200023f620001e2565b5b50919050565b60008190508160005260206000209050919050565b60006020601f8301049050919050565b600082821b905092915050565b600060088302620002aa7fffffffffffffffffffffffffffffffffffffffffffffffffffffffffffffffff826200026b565b620002b686836200026b565b95508019841693508086168417925050509392505050565b6000819050919050565b6000620002f9620002f3620002ed8462000151565b620002ce565b62000151565b9050919050565b6000819050919050565b6200031583620002d8565b6200032d620003248262000300565b84845462000278565b825550505050565b600090565b6200034462000335565b620003518184846200030a565b505050565b5b8181101562000379576200036d6000826200033a565b60018101905062000357565b5050565b601f821115620003c857620003928162000246565b6200039d846200025b565b81016020851015620003ad578190505b620003c5620003bc856200025b565b83018262000356565b50505b505050565b600082821c905092915050565b6000620003ed60001984600802620003cd565b1980831691505092915050565b6000620004088383620003da565b9150826002028217905092915050565b6200042382620001a8565b67ffffffffffffffff8111156200043f576200043e620001b3565b5b6200044b825462000211565b620004588282856200037d565b600060209050601f8311600181146200049057600084156200047b578287015190505b620004878582620003fa565b865550620004f7565b601f198416620004a08662000246565b60005b82811015620004ca57848901518255600182019150602085019450602081019050620004a3565b86831015620004ea5784890151620004e6601f891682620003da565b8355505b6001600288020188555050505b505050505050565b61090d806200050f6000396000f3fe608060405234801561001057600080fd5b50600436106100625760003560e01c80630121b93f1461006757806309eef43e146100835780633477ee2e146100b357806335b8e820146100e5578063a3ec138d14610117578063bb9aa28f14610147575b600080fd5b610081600480360381019061007c9190610542565b610165565b005b61009d600480360381019061009891906105cd565b6102f5565b6040516100aa9190610615565b60405180910390f35b6100cd60048036038101906100c89190610542565b61034b565b6040516100dc939291906106cf565b60405180910390f35b6100ff60048036038101906100fa9190610542565b6103fd565b60405161010e939291906106cf565b60405180910390f35b610131600480360381019061012c91906105cd565b6104dd565b60405161013e9190610615565b60405180910390f35b61014f6104fd565b60405161015c919061070d565b60405180910390f35b600160003373ffffffffffffffffffffffffffffffffffffffff1673ffffffffffffffffffffffffffffffffffffffff16815260200190815260200160002060009054906101000a900460ff16156101f2576040517f08c379a00000000000000000000000000000000000000000000000000000000081526004016101e990610774565b60405180910390fd5b60008111801561020457506002548111155b610243576040517f08c379a000000000000000000000000000000000000000000000000000000000815260040161023a906107e0565b60405180910390fd5b60018060003373ffffffffffffffffffffffffffffffffffffffff1673ffffffffffffffffffffffffffffffffffffffff16815260200190815260200160002060006101000a81548160ff02191690831515021790555060008082815260200190815260200160002060020160008154809291906102c09061082f565b9190505550807fe447c5464cb203c1da94b4db8588d3cbf313ce4a489122f6b88e87f465b2810e60405160405180910390a250565b6000600160008373ffffffffffffffffffffffffffffffffffffffff1673ffffffffffffffffffffffffffffffffffffffff16815260200190815260200160002060009054906101000a900460ff169050919050565b6000602052806000526040600020600091509050806000015490806001018054610374906108a6565b80601f01602080910402602001604051908101604052809291908181526020018280546103a0906108a6565b80156103ed5780601f106103c2576101008083540402835291602001916103ed565b820191906000526020600020905b8154815290600101906020018083116103d057829003601f168201915b5050505050908060020154905083565b6000606060008060008581526020019081526020016000206000015460008086815260200190815260200160002060010160008087815260200190815260200160002060020154818054610450906108a6565b80601f016020809104026020016040519081016040528092919081815260200182805461047c906108a6565b80156104c95780601f1061049e576101008083540402835291602001916104c9565b820191906000526020600020905b8154815290600101906020018083116104ac57829003601f168201915b505050505091509250925092509193909250565b60016020528060005260406000206000915054906101000a900460ff1681565b6000600254905090565b600080fd5b6000819050919050565b61051f8161050c565b811461052a57600080fd5b50565b60008135905061053c81610516565b92915050565b60006020828403121561055857610557610507565b5b60006105668482850161052d565b91505092915050565b600073ffffffffffffffffffffffffffffffffffffffff82169050919050565b600061059a8261056f565b9050919050565b6105aa8161058f565b81146105b557600080fd5b50565b6000813590506105c7816105a1565b92915050565b6000602082840312156105e3576105e2610507565b5b60006105f1848285016105b8565b91505092915050565b60008115159050919050565b61060f816105fa565b82525050565b600060208201905061062a6000830184610606565b92915050565b6106398161050c565b82525050565b600081519050919050565b600082825260208201905092915050565b60005b8381101561067957808201518184015260208101905061065e565b60008484015250505050565b6000601f19601f8301169050919050565b60006106a18261063f565b6106ab818561064a565b93506106bb81856020860161065b565b6106c481610685565b840191505092915050565b60006060820190506106e46000830186610630565b81810360208301526106f68185610696565b90506107056040830184610630565b949350505050565b60006020820190506107226000830184610630565b92915050565b7f596f75206861766520616c726561647920766f7465642e000000000000000000600082015250565b600061075e60178361064a565b915061076982610728565b602082019050919050565b6000602082019050818103600083015261078d81610751565b9050919050565b7f496e76616c69642063616e6469646174652e0000000000000000000000000000600082015250565b60006107ca60128361064a565b91506107d582610794565b602082019050919050565b600060208201905081810360008301526107f9816107bd565b9050919050565b7f4e487b7100000000000000000000000000000000000000000000000000000000600052601160045260246000fd5b600061083a8261050c565b91507fffffffffffffffffffffffffffffffffffffffffffffffffffffffffffffffff820361086c5761086b610800565b5b600182019050919050565b7f4e487b7100000000000000000000000000000000000000000000000000000000600052602260045260246000fd5b600060028204905060018216806108be57607f821691505b6020821081036108d1576108d0610877565b5b5091905056fea26469706673582212203a5dd8d48da6e78cd94b575030428705bc0ad712268d1f08512b61e0c5c67b8764736f6c63430008180033",
  "linkReferences": {},
  "deployedLinkReferences": {}
}